:02000000552A7F
:0E000600213083120313FD00FD0B07280800B4
:06001400000000000800DE
:10001A000F3083120313FC004730FD00FD0B132839
:0A002A00FC0B132800000000080082
:10003400831603139818202800001A2869088312CD
:040044009900080017
:1000480083160313E91B2B28831288122D28831289
:1000580088168316691B33288312081235288312E1
:1000680008168316E91A3B28831288113D28831243
:1000780088158316691A43288312081145288312A4
:100088000815831661184B28831208144D2883120B
:10009800081088140A2088108316E9195628831234
:1000A8008812582883128816831669195E288312C5
:1000B80008126028831208168316E9186628831226
:1000C8008811682883128815831669186E28831288
:1000D8000811702883120815831661187628831270
:1000E800081478288312081088140A2088108316A8
:0C00F800611C80280D20812803200800D6
:10010400831603139816903083129800831687176A
:10011400071383128C1E91281A08F0008B280800FC
:100124008316031361106608E90024208316611402
:020134000800C1
:100136000E3083120313FD00FD0B9F2800000800FC
:1001460083160313E801660884000008E7006708C1
:10015600003A0319B9286708E9001A208316E80A45
:0E0166006808660784000008E700AA28080061
:100174004F3083160313E600A3200230FB00043043
:10018400FC00BA30FD00FD0BC528FC0BC528FB0B99
:10019400C5280000A030E600A3200230FB00043094
:1001A400FC00BA30FD00FD0BD528FC0BD528FB0B59
:1001B400D52800006208E600A3201A30E9001A20BE
:1001C4000230FB000430FC00BA30FD00FD0BE828CF
:0C01D400FC0BE828FB0BE82800000800EA
:1001E0000229803083160313E2001529C030E20093
:1001F00015299430E2001529D430E2001529803009
:10020000E2001529831603136208013A0319F12845
:100210006208023A0319F6286208033A0319F9281A
:100220006208043A0319FC28FF286303F0006208FF
:10023000F0077008E2007008E900242083166110BE
:10024000E501650864078400000803192F29650883
:10025000640784000008E6009220E50A2129611461
:02026000080094
:0E0262008316031360088A005F0882000800FC
:10027000831203139F01C0309F046B09F0007008C4
:1002800083169F051F179F176208F000F00D70106E
:10029000F00D7010F00D7010700883129F041F1481
:1002A0009B201F151F1D5629000052291F101E08D4
:1002B000F100F00183161E08F0040030F10408007C
:1002C0008316031388100810081188110812881269
:1002D00083128810081088120812881108110D2046
:1002E0000D200D208815081588140A2088100D206F
:1002F00088140A2088100D2088140A2088100D20E8
:10030000081188140A2088100D2088140A208810EB
:100310008811881688140A2088100D208812081564
:1003200088140A208810081188140A2088100D20CB
:1003300088140A208810081588140A2088100D20B7
:10034000081188140A2088108816081688150815C0
:0E03500088140A2088100D20831661140800FE
:10035E003330831603139900181582200230FB00E8
:10036E000430FC00BA30FD00FD0BBB29FC0BBB2991
:10037E00FB0BBB2900006C308316E600A320023075
:10038E00FB000430FC00BA30FD00FD0BCC29FC0B49
:10039E00CC29FB0BCC290000D930E600A32002307B
:1003AE00FB000430FC00BA30FD00FD0BDC29FC0B19
:0A03BE00DC29FB0BDC29000008001D
:1003C800013083160313E20038217108023C031D33
:1003D800EF297008003C03180E2A0230E2000130B1
:1003E800E300C830E400F02083120614B730831607
:1003F800E200BA200B30FB002630FC005D30FD0027
:10040800FD0B042AFC0B042AFB0B042A0000000045
:100418000610162A02308316E2000130E3005A3033
:06042800E400F0200800D2
:10042E0083160313E20138217108023C031D212AB1
:10043E007008003C03182E2A0130E2000130E30060
:10044E002030E400F0202F30E200BA20362A0130AE
:10045E008316E2000130E3003E30E400F020080095
:10046E0031218A110A128000840ADF0A0319E00A78
:08047E00F003031D372A0800FA
:100486008030831603139F0060210130E900242089
:100496000C308316E90024208316061083120610FA
:0404A600AF2108007A
:1004AA00002343221722E421063083120313FB00A0
:1004BA001330FC00AD30FD00FD0B612AFC0B612AF4
:0C04CA00FB0B612A00000000572A6A2A80
:10060000203084004B3083120313F00070308316C7
:10061000DF000230E0003722A03084001730831260
:100620000313F000BB308316DF000230E0003722F6
:100630006B308400013083120313F000FE30831608
:10064000DF000230E0003722B7308400113083121F
:100650000313F000E9308316DF000230E000372298
:100660006C308400043083120313F000FA308316D8
:10067000DF000230E0003722C830840017308312D8
:100680000313F000D2308316DF000230E00037227F
:02069000080060
:1004E000573461347434653472342034693473346D
:0E04F000203463346C34653461346E3400346F
:1004FE00573461347434653472342034693473344F
:0E050E00203463346C34653461346E34003450
:10051C00203420342034203420342034203420342F
:10052C00203420342034203420342034203420341F
:02053C00003489
:10053E00413454342B3443344D34473446343D34F3
:06054E0031340D340034CD
:1005540020342034203420342034203420342034F7
:1005640020342034203420342034203420342034E7
:02057400003451
:10057600413454342B3443344D34473453343D34AE
:1005860022342B3431343234333434343534363443
:0E059600373438343934303422340D340034E4
:1005A4005034483420346C346534763465346C34D7
:1005B40020346934733420346834693467346834DB
:0205C400003401
:0C05C60041345434453430340D340034DA
:1005D2005034483420346C346534763465346C34A9
:1005E20020346934733420346834693467346834AD
:0205F2000034D3
:0805F400413454340D3400348D
:0205FC000F34BA
:02400E007A3BFB
:00000001FF
